:1000000093C0ADC0ACC0ABC0AAC0A9C0A8C0A7C0B7
:10001000A6C0B0C4A4C068C4A2C0A1C0A0C09FC0F4
:100020009EC09DC09CC06E616E00696E66000040FF
:100030007A10F35A00A0724E18090010A5D4E800F7
:1000400000E87648170000E40B54020000CA9A3B0F
:10005000000000E1F5050000809698000000404295
:100060000F000000A0860100000010270000000023
:10007000E803000000006400000000000A00000027
:1000800000000100000000002C76D888DC674F08D3
:1000900023DFC1DFAE59E1B1B796E5E3E453C63AD9
:1000A000E651997696E8E6C28426EB898C9B62ED50
:1000B000407C6FFCEFBC9C9F40F2BAA56FA5F4900A
:1000C000055A2AF75C936B6CF9676DC11BFCE0E481
:1000D0000D47FEF520E6B500D0ED902E03009435D7
:1000E00077050080841E080000204E0A000000C82A
:1000F0000C333333330F986E12831141EF8D21147B
:10010000893BE65516CFFEE6DB18D1844B381BF74A
:100110007C1D901DA4BBE424203284725E228100E9
:10012000C9F124ECA1E53D2711241FBECFE5D4E0A1
:10013000DEBFCDBF11E0A0E6B0E0E4EBF5E102C028
:1001400005900D92A032B107D9F721E0A0E2B1E00D
:1001500001C01D92A038B207E1F77AD429CA50CF66
:1001600087B38D7F87BB87B38B7F87BB87B3877F41
:1001700087BB81B38F7D81BB81B38B7F81BB81B313
:10018000877F81BB81B38F7B81BB81B38F7781BB3D
:1001900088B3826088BB88B3846088BB88B388607A
:1001A00088BB82B3846082BB82B3886082BB82B327
:1001B000806282BB82B3806482BB82B3806882BB70
:1001C00008958130910519F481E083BF18C088300B
:1001D000910519F482E083BF12C08034910519F4AF
:1001E00083E083BF0CC0811521E0920719F484E0FD
:1001F00083BF05C08115944011F485E083BF62BFC1
:10020000413019F489B7816089BF089590BD89B9DB
:1002100088E18AB986E880BD8AB180688AB98BE6B0
:1002200090E090937D0180937C0108955D9BFECFCB
:100230008CB90895FBDF80E090E00895809164011F
:10024000909165018330910591F480916A00843426
:1002500009F447C084E480936A0089E790E01AD9E2
:100260008FE39CE90197F1F700C000000895823008
:10027000910589F480916A00833499F183E4809335
:100280006A008FE790E006D98FE39CE90197F1F7C8
:1002900000C0000008958130910589F480916A00C2
:1002A0008234F9F082E480936A0085E890E0F2D825
:1002B0008FE39CE90197F1F700C000000895892BB6
:1002C00081F480916A00813461F081E480936A0056
:1002D0008BE890E0DFD88FE39CE90197F1F700C04D
:1002E00000000895ABDF0895813339F481E990E08F
:1002F000D1D880E3809362000895823339F484E991
:1003000090E0C8D880E3809363000895833339F484
:1003100087E990E0BFD880E3809364000895843338
:1003200039F48AE990E0B6D880E3809365000895B7
:10033000853339F48DE990E0ADD880E38093660091
:100340000895863331F480EA90E0A4D880E3809366
:1003500067000895813339F483EA90E09BD880E305
:10036000809362000895823339F486EA90E092D84F
:1003700080E3809363000895833339F489EA90E041
:1003800089D880E3809364000895843339F48CEA3B
:1003900090E080D880E3809365000895853339F438
:1003A0008FEA90E077D880E38093660008958633E3
:1003B00031F482EB90E06ED880E38093670008957B
:1003C000813339F485EB90E065D880E38093620057
:1003D0000895823339F488EB90E05CD880E3809311
:1003E00063000895833339F48BEB90E053D880E3B6
:1003F000809364000895843339F48EEB90E04AD8FA
:1004000080E3809365000895853339F481EC90E0B2
:1004100041D880E3809366000895863331F484ECFC
:1004200090E038D880E3809367000895813339F4F1
:1004300087EC90E02FD880E38093620008958233A8
:1004400039F48AEC90E026D880E380936300089525
:10045000833339F48DEC90E01DD880E38093640001
:100460000895843339F480ED90E014D880E38093CC
:1004700065000895853339F483ED90E00BD880E36F
:10048000809366000895863331F486ED90E002D8BB
:1004900080E380936700089580916100813309F0C3
:1004A000D7C0829B18C0809169008133A1F48091EC
:1004B0006401909165018330910529F410926501E2
:1004C0001092640105C001969093650180936401C8
:1004D00080E380936900839B19C080916800813319
:1004E000A9F48091640190916501009739F483E04B
:1004F00090E0909365018093640105C0019790930B
:1005000065018093640180E380936800B19B19C00A
:10051000809162008133A9F480916A00813419F4DA
:1005200081E3E2DE0EC0823419F481E313DF09C0F7
:10053000833419F481E344DF04C0843411F481E38B
:1005400075DFB29B19C0809163008133A9F480915B
:100550006A00813419F482E3C7DE0EC0823419F4D4
:1005600082E3F8DE09C0833419F482E329DF04C092
:10057000843411F482E35ADFB39B19C08091640084
:100580008133A9F480916A00813419F483E3ACDEED
:100590000EC0823419F483E3DDDE09C0833419F41C
:1005A00083E30EDF04C0843411F483E33FDF859BD3
:1005B00019C0809165008133A9F480916A0081346B
:1005C00019F484E391DE0EC0823419F484E3C2DEB0
:1005D00009C0833419F484E3F3DE04C0843411F4D5
:1005E00084E324DF869B19C0809166008133A9F4DF
:1005F00080916A00813419F485E376DE0EC082347E
:1006000019F485E3A7DE09C0833419F485E3D8DE45
:1006100004C0843411F485E309DF879B19C08091FD
:1006200067008133A9F480916A00813419F486E36C
:100630005BDE0895823419F486E38CDE08958334FA
:1006400019F486E3BDDE0895843411F486E3EEDE0A
:10065000089580916100813309F058C0829909C0E2
:100660008FE39CE90197F1F700C0000081E38093DC
:100670006900839909C08FE39CE90197F1F700C0F5
:10068000000081E380936800B19909C08FE39CE981
:100690000197F1F700C0000081E380936200B299F6
:1006A00009C08FE39CE90197F1F700C0000081E3E6
:1006B00080936300B39909C08FE39CE90197F1F738
:1006C00000C0000081E380936400859909C08FE336
:1006D0009CE90197F1F700C0000081E38093650079
:1006E000869909C08FE39CE90197F1F700C00000EB
:1006F00081E380936600879909C08FE39CE90197A5
:10070000F1F700C0000081E380936700089583E063
:1007100084BB85BB86B78B7F86BF11B88CE080B960
:1007200084E086BF85E38A95F1F70000089584EAA6
:1007300086BF06B607FEFDCF81B1887F8830E1F71E
:10074000089583B984E886BF06B607FEFDCF81B160
:10075000887F8831E1F7089583B984E886BF06B6BB
:1007600007FEFDCF81B1887F8832E1F7089584E9E3
:1007700086BF0895CF93C82FDADF80916601880F76
:10078000E0DF8C2FE9DFF3DFCF910895CF93C82FFF
:10079000809163018F709C2F907F892B8460809360
:1007A0006301E8DF85E08A95F1F70000809163013D
:1007B0008B7F80936301DEDF8AE18A95F1F700C0C9
:1007C00080E1C89F90011124809163018F70822B7A
:1007D000846080936301CEDF85E08A95F1F70000A5
:1007E000809163018B7F80936301C4DF8AE18A95E6
:1007F000F1F700C0CF910895CF93C82F88E0809380
:100800006301B8DF8C2FC2DFCF9108951F93CF9380
:10081000DF93C82F162F813011F480E8EDDFC2304E
:1008200011F480ECE9DF8FEB9DE50197F1F700C053
:100830000000C0E0D0E003C084E1DEDF2196812F1C
:1008400090E0C817D907C4F3DF91CF911F910895A5
:1008500081E0D2DF08958093660159DF84E08093C0
:10086000630188DF25E82A95F1F7000083E0C4DF03
:1008700083E0C2DF83E0C0DF82E0BEDF88E2BCDF6E
:100880008FE0BADF81E0B8DF86E0B6DF80E8B4DF72
:100890008FEF93ED20E3815090402040E1F700C0BE
:1008A0000000D6DF8FEF91EE24E081509040204091
:1008B000E1F700C000000895CF93C82F8091630135
:1008C00089608093630156DF8C2F60DFCF9108959C
:1008D000CF93DF93EC0102C02196EEDF8881811176
:1008E000FBCFDF91CF9108951F920F920FB60F9219
:1008F00011242F933F934F935F936F937F938F9325
:100900009F93AF93BF93CF93EF93FF935F9BFECFE4
:10091000CCB163E270E08C2F90E057D5892B71F059
:10092000E0912001F0E0E859FE4F10821092200182
:100930001F92CF939CD50F900F900AC0E091200199
:1009400081E08E0F80932001F0E0E859FE4FC083D4
:10095000FF91EF91CF91BF91AF919F918F917F9137
:100960006F915F914F913F912F910F900FBE0F901C
:100970001F9018951F920F920FB60F9211242F936C
:100980003F934F935F936F937F938F939F93AF9317
:10099000BF93EF93FF938091610190916201019663
:1009A0009093620180936101809161019091620155
:1009B0004E9751F08091610190916201CC9721F0A6
:1009C0008091610190916201809161019091620139
:1009D0008436910550F18FEB9DE50197F1F700C04A
:1009E000000080916000813071F41092600060E03E
:1009F0000DDF81E591E06CDF60E082E007DF81E4FC
:100A000091E066DF0EC081E08093600060E0FEDE72
:100A100081E391E05DDF60E082E0F8DE81E291E079
:100A200057DF109262011092610183E682BFFF914D
:100A3000EF91BF91AF919F918F917F916F915F9156
:100A40004F913F912F910F900FBE0F901F901895CF
:100A500087DB87E690E0DADB41E063E680E094E064
:100A6000B0DB87E2F8DE2FEF80E792E02150804094
:100A70009040E1F700C000008EE0E7EEF0E0A1E575
:100A8000B1E001900D928A95E1F78EE0E5EFF0E09C
:100A9000A1E4B1E001900D928A95E1F78EE0E3E0E8
:100AA000F1E0A1E3B1E001900D928A95E1F78EE0CB
:100AB000E1E1F1E0A1E2B1E001900D928A95E1F768
:100AC00078941092620110926101C3DDE5DC0ADCCA
:100AD00092B381E0892782BBF8CFA0E1B0E0E2E7E2
:100AE000F5E059C37C011B016A01FC0117821682E3
:100AF000838181FF2AC39E012F5F3F4F3901F70198
:100B00009381F10193FD859193FF81911F018823CA
:100B100009F417C3853239F493FD859193FF8191D0
:100B20001F01853231F4B70190E065D456016501AB
:100B3000E6CF10E0512C912CFFE1F915D8F08B3263
:100B400079F038F4803279F08332A1F4F92DF06134
:100B50002EC08D3261F0803369F4292D21602DC0C3
:100B6000392D3260932E892D8460982E2AC0E92D6C
:100B7000E86015C097FC2DC020ED280F2A3088F4BE
:100B800096FE06C03AE0139F200D1124122F19C0C3
:100B90008AE0589E200D1124522EE92DE0629E2EEF
:100BA00010C08E3231F496FCCCC2F92DF0649F2E29
:100BB00008C08C3621F4292D2068922E02C0883678
:100BC00041F4F10193FD859193FF81911F01811102
:100BD000B3CF9BEB980F933020F4992D9061805EFA
:100BE00007C09BE9980F933008F059C1992D9F7E5B
:100BF00096FF16E09F73992E853619F49064992E0E
:100C000008C0863621F4392F3068932E02C01111A6
:100C1000115097FE07C01C3350F444244394410EF6
:100C200027E00BC0183038F027E017E005C027E0B8
:100C30009CE3492E02C0212F412C560184E0A80ECE
:100C4000B11CF6016081718182819381042DA30121
:100C5000D9D26C01F981FC87F0FF02C0F3FF06C016
:100C600091FC06C092FE06C000E205C00DE203C082
:100C70000BE201C000E08C858C7019F0011143C2B9
:100C800080C297FE10C04C0CFC85F4FF04C08A8122
:100C9000813309F44A94141474F528E0241578F586
:100CA00088E0482E2CC096FC2AC0812F90E08C153D
:100CB0009D059CF03CEFC3163FEFD30674F0892DE1
:100CC0008068982E0AC0E2E0F0E0EC0FFD1FE10F13
:100CD000F11D8081803319F411501111F4CF97FE6A
:100CE0000EC044244394410E812F90E0C816D906CB
:100CF0002CF41C1904C04424439401C010E097FE56
:100D000006C01C141D0434F4C601019605C085E01C
:100D100090E002C081E090E001110196112331F0D2
:100D2000212F30E02F5F3F4F820F931F252D30E0A2
:100D30008217930714F4581A01C0512C892D897019
:100D400041F4552031F0B70180E290E054D35A9439
:100D5000F8CF002321F0B701802F90E04CD393FC13
:100D600008C0552031F0B70180E390E044D35A9495
:100D7000F8CF97FE4AC04601D7FE02C0812C912CC5
:100D8000C60188199909F301E80FF91FFE87ED875D
:100D9000960124193109388B2F87012F10E0119506
:100DA000019511093FEF8316930621F4B7018EE2F6
:100DB00090E021D3C814D9044CF08F859889881508
:100DC000990524F4ED85FE85818101C080E3F1E081
:100DD0008F1A91082D853E852F5F3F4F3E872D87C7
:100DE0008016910624F0B70190E005D3DBCFC8143C
:100DF000D90441F49A81963320F4953319F43C8553
:100E000034FF81E3B70190E048C08A81813319F053
:100E10009C859F7E9C87B70190E0EDD2111105C0A3
:100E200094FC16C085E690E015C0B7018EE290E014
:100E3000E2D21E5F82E001E0080FF301E80FF11D2E
:100E40008081B70190E0D7D2802F0113F4CFE8CF93
:100E500085E490E0B701CFD2D7FC06C0C114D1041D
:100E600041F4EC85E4FF05C0D194C194D1088DE232
:100E700001C08BE2B70190E0BED280E32AE0C21647
:100E8000D1042CF08F5FFAE0CF1AD108F7CFB70169
:100E900090E0B1D2B701C601C096ADD249C1833648
:100EA00031F0833779F0833509F052C01FC0560105
:100EB00032E0A30EB11CF6018081898301E010E0CD
:100EC000630111C05601F2E0AF0EB11CF601C08003
:100ED000D18096FE03C0612F70E002C06FEF7FEFFC
:100EE000C6017ED28C01F92DFF7713C0560122E096
:100EF000A20EB11CF601C080D18096FE03C0612F06
:100F000070E002C06FEF7FEFC60154D28C01F92D63
:100F1000F0689F2EF3FD18C0852D90E00817190783
:100F200098F4B70180E290E066D25A94F5CFF601CA
:100F300097FC859197FE81916F01B70190E05BD29C
:100F400051105A94015011090115110581F7F0C093
:100F5000843611F0893659F5560197FE09C024E010
:100F6000A20EB11CF60160817181828193810AC059
:100F7000F2E0AF0EB11CF60160817181072E000C0A
:100F8000880B990BF92DFF769F2E97FF09C090953E
:100F90008095709561957F4F8F4F9F4FF0689F2E82
:100FA0002AE030E0A301A6D2C82EC6183EC0092D03
:100FB000853721F40F7E2AE030E01DC0097F8F368F
:100FC00091F018F4883559F0BCC0803719F0883793
:100FD00011F0B7C0006104FF09C0046007C094FEAF
:100FE00008C0066006C028E030E005C020E130E01F
:100FF00002C020E132E0560107FF09C084E0A80EDC
:10100000B11CF601608171818281938108C0F2E098
:10101000AF0EB11CF6016081718180E090E0A30108
:1010200069D2C82EC6180F77902E96FE0BC0092DD8
:101030000E7FC11650F494FE0AC092FC08C0092D20
:101040000E7E05C0DC2C092D03C0DC2C01C0D12E86
:1010500004FF0DC0FE01EC0DF11D8081803311F401
:10106000097E09C002FF06C0D394D39404C0802F28
:10107000867809F0D39403FD10C000FF06C01C2D34
:10108000D51478F4150D1D190CC0D51450F4B70102
:1010900080E290E0B0D1D394F8CFD51410F45D186D
:1010A00001C0512C04FF0FC0B70180E390E0A3D131
:1010B00002FF16C001FD03C088E790E002C088E58A
:1010C00090E0B7010CC0802F867851F001FF02C07C
:1010D0008BE201C080E207FD8DE2B70190E08BD189
:1010E000C11630F4B70180E390E085D11150F8CFFC
:1010F000CA94F301EC0DF11D8081B70190E07BD122
:10110000C110F6CF15C0F4E0F51550F584E0581A7B
:1011100093FE1EC0011125C02C8523FF27C006E2C7
:1011200010E0392D3071932EF8018491811121C086
:10113000552009F4FCCCB70180E290E05CD15A94D0
:10114000F7CFF7018681978123C08FEF9FEF20C0F3
:10115000B70180E290E04FD15A945110F9CFDACF25
:10116000512CB701802F90E046D1D6CF0AE210E093
:10117000D8CF91108052B70190E03DD10F5F1F4F43
:10118000D3CF23E0251510F483E0C1CF512CC4CF79
:101190006096E2E11CC02F923F924F925F926F9255
:1011A0007F928F929F92AF92BF92CF92DF92EF92F7
:1011B000FF920F931F93CF93DF93CDB7DEB7CA1B78
:1011C000DB0B0FB6F894DEBF0FBECDBF09942A88A3
:1011D000398848885F846E847D848C849B84AA844B
:1011E000B984C884DF80EE80FD800C811B81AA81D8
:1011F000B981CE0FD11D0FB6F894DEBF0FBECDBFA3
:10120000ED010895283008F027E03327DA01990F1F
:10121000311D87FD916000966105710539F43260DA
:101220002E5F3D9330E32A95E1F708959F3F30F01C
:1012300080387105610509F03C5F3C5F3D9391305A
:1012400008F08068911DDF93CF931F930F93FF9257
:10125000EF92192F987F9695E92F96959695E90F1D
:10126000FF27E857FF4F99273327EE24FF24A701D4
:10127000E70105900894079428F4360FE71EF81E3E
:10128000491F511D660F771F881F991F0694A1F7EC
:101290000590079428F4E70EF81E491F561FC11D3C
:1012A000770F881F991F661F0694A1F70590079472
:1012B00028F4F80E491F561FC71FD11D880F991F0C
:1012C000661F771F0694A1F70590079420F4490F35
:1012D000561FC71FD81F990F661F771F881F0694B8
:1012E000A9F784911095177041F0D695C795579539
:1012F0004795F794E7941A95C1F7EEE2F0E0689409
:101300001590159135916591959105907FE27395B2
:10131000E118F10A430B560BC90BD009C0F7E10CD9
:10132000F11E431F561FC91FD01D7EF4703311F4E8
:101330008A95E6CFE894015030F0080F0AF40027B0
:10134000021708F4202F2395022F7A3328F079E32F
:101350007D932A95E9F710C07D932A9589F6069426
:1013600097956795379517951794E118F10A430BF0
:10137000560BC90BD00998F023957E9173957A335B
:1013800008F070E37C932013B8F77E9170617D9331
:1013900030F0839571E37D9370E32A95E1F7112492
:1013A000EF90FF900F911F91CF91DF91992787FDCB
:1013B00090950895FC010590615070400110D8F798
:1013C000809590958E0F9F1F0895FC01819186173F
:1013D00021F08823D9F7992708953197CF010895EF
:1013E000FC016150704001900110D8F780959095F4
:1013F0008E0F9F1F08950F931F93CF93DF93FB01D1
:10140000238121FD03C08FEF9FEF2CC022FF16C068
:1014100046815781248135814217530744F4A081C6
:10142000B1819D012F5F3F4F318320838C932681B3
:1014300037812F5F3F4F3783268314C08B01EC0128
:10144000FB010084F185E02D0995892BE1F6D80197
:1014500016968D919C911797019617969C938E9353
:101460001697CE01DF91CF911F910F910895A0E0C3
:10147000B0E0ECE3FAE09FCEAE014B5F5F4FFA01C4
:1014800061917191AF0180917C0190917D0125DB8B
:10149000E2E0ADCE0F931F93CF93DF93E0917C01F9
:1014A000F0917D01238121FF1BC08C01D0E0C0E0C1
:1014B000F80181918F0160917C0170917D01DB01C8
:1014C0001896ED91FC911997882331F00995892B95
:1014D00079F3DFEFCFEFECCF8AE00995892B19F094
:1014E0008FEF9FEF02C08D2F9C2FDF91CF911F9127
:1014F0000F910895FA01AA27283051F1203181F186
:10150000E8946F936E7F6E5F7F4F8F4F9F4FAF4F0B
:10151000B1E03ED0B4E03CD0670F781F891F9A1F1E
:10152000A11D680F791F8A1F911DA11D6A0F711DD2
:10153000811D911DA11D20D009F468943F912AE0DE
:10154000269F11243019305D3193DEF6CF010895C6
:10155000462F4770405D4193B3E00FD0C9F7F6CFF7
:10156000462F4F70405D4A3318F0495D31FD4052BF
:10157000419302D0A9F7EACFB4E0A6959795879555
:1015800077956795BA95C9F7009761057105089534
:101590009B01AC010A2E06945795479537952795E0
:1015A000BA95C9F7620F731F841F951FA01D089578
:0415B000F894FFCFDD
:1015B4000131303030303030303041000000020032
:1015C4000000001A010000000070616765440070AB
:1015D40061676543007061676542007061676541DA
:1015E40000413100413200413300413400413500B3
:1015F400413600423100423200423300423400425C
:101604003500423600433100433200433300433453
:101614000043350043360044310044320044330073
:101624004434004435004436006C696E6530310042
:101634006C696E653032005041472D412020312DB8
:10164400566F6C2B00322D566F6C2D20332D4D753B
:101654007465005041472D412020342D486F6D653D
:1016640000352D456E642020362D5072696E0000C1
:00000001FF
